:200000000C94920A0C94BD0A0C94BD0A0C94BD0A0C94BD0A0C94BD0A0C94BD0A0C94BD0AD3
:200020000C94BD0A0C94BD0A0C94E87B0C94617A0C94BD0A0C94BD0A0C94BD0A0C94BD0AD8
:200040000C94BD0A0C94E8680C94BD0A0C94BD0A0C94BD0A0C94BD0A0C94F01A0C9450759E
:200060000C94BD0A0C94BD0A0C94BD0A0C94BD0A0C94BD0A0C94BD0A0C94BD0A0C94BD0A48
:200080000C940E3A0C94BD0A0C94BD0A0C94BD0A0C944D710C94BD0A084AD73B3BCE016EA2
:2000A00084BCBFFDC12F3D6C74319ABD56833DDA3D00C77F11BED9E4BB4C3E916BAAAABE5D
:2000C000000000803F05A84CCDB2D44EB93836A9020C50B9918688083CA6AAAA2ABE00001B
:2000E00000803F6563686F3A0048617264636F6465642044656661756C74205365747469DC
:200100006E6773204C6F616465640053746F7265642073657474696E6773207265747269E6
:2001200065766564002044002049002020204D3330312050005049442073657474696E67A2
:20014000733A00205A0020590020204D323036205800486F6D65206F666673657420286D7D
:200160006D293A00204500205A0020580020420020540020204D323035205300416476616F
:200180006E636564207661726961626C65733A20533D4D696E206665656472617465202836
:2001A0006D6D2F73292C20543D4D696E2074726176656C20666565647261746520286D6D69
:2001C0002F73292C20423D6D696E696D756D207365676D656E742074696D6520286D73295A
:2001E0002C20583D6D6178696D756D205859206A65726B20286D6D2F73292C20205A3D6D26
:200200006178696D756D205A206A65726B20286D6D2F73292C2020453D6D6178696D756D2E
:200220002045206A65726B20286D6D2F73290020540020204D323034205300416363656CBE
:2002400065726174696F6E3A20533D616363656C65726174696F6E2C20543D7265747261DD
:20026000637420616363656C65726174696F6E00204500205A0020590020204D3230312005
:2002800058004D6178696D756D20416363656C65726174696F6E20286D6D2F7332293A00E5
:2002A000204500205A0020590020204D3230332058004D6178696D756D20666565647261E7
:2002C00074657320286D6D2F73293A00204500205A0020590020204D3932205800537465B7
:2002E00070732070657220756E69743A0053657474696E67732053746F726564004572728F
:200300006F723A0054656D7065726174757265206865617465642062656420737769746314
:20032000686564206F66662E204D415854454D5020747269676765726564202121003A202E
:200340004578747275646572207377697463686564206F66662E204D494E54454D50207478
:2003600072696767657265642021003A204578747275646572207377697463686564206F3C
:2003800066662E204D415854454D5020747269676765726564202100202D20496E76616CA2
:2003A0006964206578747275646572206E756D62657220210070012C0190012701B00122C9
:2003C00001C0011D01F00118011002130130020E016002090190020401C002FF000003FA0B
:2003E000004003F5008003F000D003EB002004E6007004E100E004DC004005D700C005D2C2
:20040000004006CD00D006C8008007C3003008BE00F008B900C009B400B00AAF00B00BAAEF
:2004200000D00CA500000EA000500F9B00C01096005012910000148C00C0158700B01782F5
:2004400000B0197D00D01B7800001E730040206E0090226900F024640040275F0090295A28
:2004600000E02B5500102E500020304B0010324600E033410090353C0010373700703832BE
:2004800000A0392D00B03A2800A03B2300603C1E00103D1900903D1400103E0F00703E0A30
:2004A00000C03E0500003F0400403F0300803F0200C03F0000504944204175746F74756EC7
:2004C000652066696E6973686564212050757420746865206C617374204B702C204B6920A3
:2004E000616E64204B6420636F6E7374616E74732066726F6D2061626F766520696E746F22
:2005000020436F6E66696775726174696F6E2E6800504944204175746F74756E6520666194
:20052000696C6564212074696D656F75740020403A006F6B20543A006F6B20423A005049A4
:2005400044204175746F74756E65206661696C6564212054656D70657261747572652074FA
:200560006F6F206869676800204B643A2000204B693A2000204B703A200020436C6173733B
:2005800069632050494420002054753A2000204B753A2000206D61783A2000206D696E3A97
:2005A000200020643A200020626961733A20001000C90210012C014001220170011801B06D
:2005C000010E01F00104015002FA00B002F0003003E600D003DC009004D2007005C800A01C
:2005E00006BE000008B400B009AA00D00BA000600E960060118C000015820020197800C094
:200600001D6E00A0226400B0275A00902C500000314600E0343C0010383200903A28006059
:200620003C1E00A03D1400803E0A00203F00006563686F3A0020746F6F206C6F6E672065A8
:200640007874727573696F6E2070726576656E7465640020636F6C6420657874727573692B
:200660006F6E2070726576656E746564006563686F3A004572726F723A005072696E746521
:20068000722073746F707065642064756520746F206572726F72732E2046697820746865D5
:2006A000206572726F7220616E6420757365204D39393920746F20726573746172742E20A2
:2006C0002854656D70657261747572652069732072657365742E20536574206974206166C7
:2006E0007465722072657374617274696E6729005072696E7465722068616C7465642E205F
:200700006B696C6C28292063616C6C656421006F6B00526573656E643A20002200556E6B51
:200720006E6F776E20636F6D6D616E643A20220020573A0020453A00543A00486F74656EA0
:2007400064206F6666736574733A002200556E6B6E6F776E20636F6D6D616E643A20220054
:2007600044434D6F746F722043757272656E7420416E616C6F672052656164696E673A0058
:2007800066726F6E7473746F703A20006261636B73746F703A2000653A20007A5F6D617881
:2007A0003A20007A5F6D696E3A2000795F6D61783A2000785F6D61783A2000205A3A0020A5
:2007C000593A0020436F756E7420583A200020453A00205A3A0020593A00583A0046495212
:2007E0004D574152455F4E414D453A4D61726C696E2056313B20537072696E7465722F6771
:2008000072626C206D617368757020666F722067656E36204649524D574152455F55524C24
:200820003A68747470733A2F2F6769746875622E636F6D2F4572696B5A616C6D2F4D617226
:200840006C696E2F2050524F544F434F4C5F56455253494F4E3A312E30204D414348494E76
:20086000455F545950453A4D656E64656C2045585452554445525F434F554E543A322055A7
:200880005549443A30303030303030302D303030302D303030302D303030302D3030303008
:2008A00030303030303030300A00204000202F0020423A00204000202F003A002054006F97
:2008C0006B00204000202F0020423A00204000202F003A002054006F6B00204000202F007C
:2008E00020423A00204000202F003A002054006F6B00434F4445002569206D696E2C2025A7
:200900006920736563000000A0400000A0400000803F000050430000664300007E43010195
:20092000FF0000504300006643000000000000000000000000000000000000504300006683
:200940004300007E435072696E7465722073746F707065642064756520746F206572726F57
:2009600072732E2046697820746865206572726F7220616E6420757365204D393939207406
:200980006F20726573746172742E202854656D706572617475726520697320726573657480
:2009A0002E205365742069742061667465722072657374617274696E6729006F6B004E6F6B
:2009C000204C696E65204E756D626572207769746820636865636B73756D2C204C617374B7
:2009E000204C696E653A20004E6F20436865636B73756D2077697468206C696E65206E753E
:200A00006D6265722C204C617374204C696E653A2000636865636B73756D206D69736D61C4
:200A20007463682C204C617374204C696E653A20004C696E65204E756D6265722069732068
:200A40006E6F74204C617374204C696E65204E756D6265722B312C204C617374204C696EE1
:200A6000653A20004D313130002020506C616E6E657242756666657242797465733A20000D
:200A80002046726565204D656D6F72793A20004F6374202037203230313400436F6D706945
:200AA0006C65643A2000286E6F6E652C2064656661756C7420636F6E6669672900207C2023
:200AC000417574686F723A20004F637420203720323031342031313A35323A303100204C9B
:200AE00061737420557064617465643A2000312E302E30004D61726C696E0020536F667461
:200B00007761726520526573657400205761746368646F67205265736574002042726F77D5
:200B20006E206F7574205265736574002045787465726E616C20526573657400506F77658B
:200B4000725570007374617274002200656E717565696E672022002200656E717565696E59
:200B60006720220045313A200045303A20005A3A2000593A2000583A20004D53312C4D5377
:200B8000322050696E730A0024F404D9201BC40C5C0E9804C4095F0265077101F405F9005B
:200BA000FB04B30048048700C10369005803550003034500BE023A008402310053022A0058
:200BC0002902250004022000E4011C00C8011900AF0117009801140084011300710110002E
:200BE0006101100051010E0043010D0036010B002B010B0020010B00150109000C010900F8
:200C000003010800FB000800F3000800EB000700E4000600DE000600D8000600D200060054
:200C2000CC000500C7000500C2000500BD000400B9000400B5000400B1000400AD000400B3
:200C4000A9000400A5000300A20003009F0004009B00030098000300950002009300030091
:200C6000900003008D0002008B000300880002008600020084000300810002007F00020027
:200C80007D0002007B00020079000200770001007600020074000200720001007100020091
:200CA0006F0002006D0001006C0002006A00010069000200670001006600010065000100DC
:200CC000640002006200010061000100600001005F0002005D0001005C0001005B00010010
:200CE0005A0001005900010058000100570001005600010055000100540001005300000039
:200D0000530001005200010051000100500001004F0001004E0000004E0001004D0001004E
:200D20004C0001004B0000004B0001004A0001004900010048000000480001004700010061
:200D400046000000460001004500000045000100440001004300000043000100420000006D
:200D6000420001004100000041000100400001003F0000003F0001003E0000003E00010070
:200D80003D0000003D0001003C0000003C0000003C0001003B0000003B0001003A00000072
:200DA0003A000100390000003900010038000000380000003800010037000000370001006D
:200DC000360000003600000036000100350000003500000035000100340000003400000068
:200DE00034000100330000003300000033000100320000003200000032000100310000005C
:200E000031000000310001003000000030000000300001002F0000002F0000002F00000051
:200E20002F0001002E0000002E0000002E0001002D0000002D0000002D0000002D00010042
:200E40002C0000002C0000002C0000002C0001002B0000002B0000002B0000002B00010034
:200E60002A0000002A0000002A0000002A0001002900000029000000290000002900000025
:200E8000290001002800000028000000280000002800000028000100270000002700000011
:200EA0002700000027000000270001002600000026000000260000002600000026000100FD
:200EC0002500000025000000250000002500000025000000250001002400000024000000EB
:200EE0002400000024000000240001002300000023000000230000002300000023000000D6
:200F00002300000023000100220000002200000022000000220000002200000022000100BD
:200F20002100000021000000210000002100000021000000210000002100010020000000A9
:200F4000200000002000000020000000200000002000000020000000200001001F00000091
:200F60001F0000001F0000001F0000001F0000001F0000001F0001001E0000001E0000007A
:200F80001E0000001E00000024F4D43050C38E20C2A24017828B7011127A910D816CD90AF5
:200FA000A861E108C7586607615143061E4B5D05C145A7041A411104093D9803713931030D
:200FC0004036DB0265339102D4305402802E1D02632CEE01752AC501B028A0011027810157
:200FE0008F2564012B244B01E0223401AC211F018D200D01801FFC00841EED00971DDF00A1
:20100000B81CD200E61BC600201BBC00641AB200B219A8000A19A0006A189900D117910072
:2010200040178B00B516840031167E00B31579003A157300C7146F0058146A00EE13660030
:201040008813630025135E00C7125B006C12570015125400C111510070114F0021114B0008
:20106000D61049008D1047004610440002104200C00F4000800F3E00420F3C00060F3B00B6
:20108000CB0E3800930E37005C0E3500270E3400F30D3200C10D3100900D3000600D2E00C6
:2010A000320D2D00050D2C00D90C2B00AE0C2900850C29005C0C2700350C27000E0C2600A2
:2010C000E80B2400C40B2400A00B23007D0B23005A0B2100390B2100180B2000F80A1F003E
:2010E000D90A1E00BB0A1E009D0A1D00800A1D00630A1C00470A1B002C0A1B00110A1A0026
:20110000F7091A00DD091900C4091900AB091900920917007B091800630917004C091600C7
:2011200036091600200916000A091500F5081500E0081400CC081400B8081400A408140069
:20114000900813007D0812006B081300580812004608120034081100230811001208110041
:2011600001081100F0071000E0071000D0071000C0071000B0070F00A107100091070E0075
:2011800083070F0074070F0065070E0057070E0049070E003B070D002E070E0020070D0022
:2011A00013070D0006070D00F9060C00ED060D00E0060C00D4060C00C8060C00BC060C0063
:2011C000B0060C00A4060B0099060C008D060B0082060B0077060B006C060B0061060A0046
:2011E00057060B004C060A0042060A0038060A002E060A0024060A001A060A0010060900D6
:2012000007060A00FD050900F4050900EB050900E2050900D9050900D0050900C705090027
:20122000BE050900B5050800AD050800A50509009C050800940508008C050800840508003F
:201240007C050800740508006C050700650508005D050700560508004E0507004705070021
:201260004005080038050700310507002A050700230507001C050600160507000F050700D7
:201280000805060002050700FB040600F5040700EE040600E8040600E2040700DB0406006C
:2012A000D5040600CF040600C9040600C3040600BD040600B7040600B1040500AC040600DE
:2012C000A6040600A00405009B04060095040500900406008A04050085040500800406002D
:2012E0007A04050075040500700405006B04050066040500610405005C0405005704050062
:20130000520405004D04050048040500430405003E0404003A040500350405003004040080
:201320002C04050027040400230405001E0404001A04040016040500110404000D04040088
:20134000090405000404040000040400FC030400F8030400F4030400F0030400EC03040080
:20136000E8030400E4030400E0030400DC030400D8030400D4030400D0030400CC03040065
:20138000C8030300C50303006563686F3A00205A3A0020593A0020583A00656E6473746F35
:2013A0007073206869743A200001290229042908291029202940298029012C022C012602C0
:2013C00026042608261026202640268026402C802C012302230423082310232023402380FB
:2013E0002301200220042008201020202040208020102C202C012F022F042F082F102F2019
:201400002F402F802F7EFE7EFD7EFB7EF77EEF7EDF7EBF7E7F000100004914120002000024
:201420005B1443000300009E140401030904A2141802030904BC141603030904D4140C0063
:2014400001C1020180360181361201000202000020C016830400010102030109024300026D
:201460000100C03209040000010202010005240010010524010001042402060524060001A1
:201480000705820308004009040100020A000000070503024000000705840240000004032F
:2014A000090418035400650065006E00730079006400750069006E006F00000016035500FF
:2014C000530042002000530065007200690061006C0000000C0331003200330034003500E9
:2014E0000000494E46494E4954594E414ECDCCCC3D0AD7233C17B7D13877CC2B329595E63C
:20150000241FB14F0A000020410000C84200401C4620BCBE4CCA1B0E5AAEC59D7400873FF4
:20152000BC70027811241FBECFEFD0E2DEBFCDBF13E0A0E0B1E0E8E9F3E001E00BBF02C045
:2015400007900D92A83BB107D9F71BBE1DE0A8EBB3E001C01D92A830B107E1F715E1C4E27A
:20156000D5E104C02297FE010E948481CE31D107C9F70E94387A0C94CA810C940000A0E09C
:20158000B0E0E5ECFAE00C949981EC015B016115710519F0FB0191838083F9908F2D90E050
:2015A0000E948881892BC9F7FDE2FF1621F4F990EE24E39405C02BE2F21609F4F990EE247F
:2015C0008E0101501040C80162EE74E143E050E00E944E0D892B01F58E010E5F1F4FC80140
:2015E00065EE74E145E050E00E944E0D892B19F48E01095F1F4FA114B10419F0F5011183CE
:201600000083E0FC04C070E090E080E814C070E090E080E86FEF08C1C8016AEE74E143E0C3
:2016200050E00E944E0D892B69F4A114B10429F470E090E080EC6FE7F7C02296F501D183AA
:20164000C083F6CF8824992440E050E060E070E0EF2DE053EA30A0F5F2E0EF2A8E2D90E025
:201660009C0128703070E2FE06C0232B79F50894811C911C2BC0232B19F00894810891084D
:20168000DB01CA0112E0880F991FAA1FBB1F1A95D1F7480F591F6A1F7B1F440F551F661F0A
:2016A000771F4E0F511D611D711D483929E9520729E9620729E1720748F084E0E82A06C05F
:2016C000EE3F31F4E3FC39C098E0E92AF990C0CFE53311F0E53189F529912D3219F4E0E1A9
:2016E000EE2A05C02B3219F081E090E003C0299182E090E0E22FE053EA3018F0C81BD90B5A
:201700001CC020E030E0FCE020383F075CF4C901880F991F880F991F280F391F220F331F99
:201720002E0F311DE991E053EA3068F3E4FE03C0309521953F4F820E931ECE2CDD24E1FE33
:2017400007C0A114B10421F02197F501D183C083CB01BA010E94E17D7B018C01F3E0CF22AE
:20176000DD2423E0C216D10421F417FB109517F9109557016801C801B70120E030E040E0C5
:2017800050E00E94417D882309F44AC097FE0DC021E0E22E25E1F22E909481949108939475
:2017A000C0E2D0E000E010E012C099E1E92E95E1F92EF6CFF7012591359145915491C6014C
:2017C000B5010E9421805B016C018C1A9D0A8C169D0684F7D595C7950F5F1F4F063011054C
:2017E00029F08CEF9FEFE80EF91EF1CFC501D6017C018D018C2D880F8D2D881F8F3F51F092
:20180000C601B50120E030E040E050E00E94417D882331F482E290E09093070D8093060D8A
:201820007E2D9F2D802F612F272F392F482F562FB901CA01CDB7DEB7ECE00C94B5812F9237
:201840003F925F926F927F928F929F92AF92BF92CF92DF92EF92FF920F931F93CF93DF93C4
:201860008C011B01EA016115710519F0FB0191838083209749F0CE010297839728F020E042
:2018800030E040E050E0F6C0F801A1908F018A2D90E00E948881892BB9F7FDE2AF1631F479
:2018A000F801A1908F015524539407C0FBE2AF1619F4F801A1908F015524209719F0C031B4
:2018C000D105C1F4F0E3AF1679F4F8018081883711F0883549F4F801A1800E5F1F4FF2E0FD
:2018E0005F2AC0E1D0E006C0209721F480E3A816E9F427C0C830D10531F1C930D10524F4C0
:20190000C230D10531F50CC0CA30D10589F0C031D105F9F4C12CD12CE12CB8E0FB2E28C070
:20192000C12CD12CE12CA0E4FA2E22C0CAE0D0E0FCECCF2EFCECDF2EFCECEF2EFCE0FF2EE0
:2019400017C0C8E0D0E0C12CD12CE12CE0E1FE2E0FC09E01442737FD4095542F60E070E07F
:2019600080E090E80E943181C901DA016C017D0120E030E040E050E060E03E01882477FCAD
:201980008094982C70EDB72EBA0CE9E0EB1570F48A2D81548A3118F499ECB92E06C08A2DFE
:2019A00081568A3150F589EAB82EBA0C8B2D90E08C179D0714F56F3FE1F0C216D306E4069F
:2019C000F506B0F0CA01B901A40193010E94F3809B01AC012B0D311D411D511D2130F0E0DD
:2019E0003F07F0E04F07F0E85F0710F461E001C06FEFF801A1908F01C5CF2114310481F0B0
:201A0000662331F001501040F1011183008308C051FE1AC002501040F1011183008314C002
:201A200067FF12C050FC05C02FEF3FEF4FEF5FE704C020E030E040E050E882E290E090936A
:201A4000070D8093060D16C050FE08C050954095309521953F4F4F4F5F4F0CC057FF0AC065
:201A600082E290E09093070D8093060D2FEF3FEF4FEF5FE7B901CA01DF91CF911F910F91C0
:201A8000FF90EF90DF90CF90BF90AF909F908F907F906F905F903F902F900895FB01DC018D
:201AA0004150504088F08D9181341CF08B350CF4805E659161341CF06B350CF4605E861B7A
:201AC000611171F3990B0895881BFCCFFB0155915523A9F0BF01DC014D9145174111E1F78D
:201AE00059F4CD010590002049F04D9140154111C9F3FB014111EFCF81E090E0019708958A
:201B0000FC018191861721F08823D9F7992708953197CF010895FB01DC014150504030F0E1
:201B20008D910190801919F40020B9F7881B990B0895AEE0B0E0EFE9FDE00C94A1810D8971
:201B40001E898EE08C831A8309838FEF9FE79E838D839E01275E3F4FCE0101966F89788DEE
:201B6000A9010E94BD0D2F813885020F131FF80110822E96E4E00C94BD81ABE0B0E0E3ECC4
:201B8000FDE00C9493813C012B015A01FC0117821682838181FD03C06FEF7FEFC6C19AE0B0
:201BA000892E1E010894211C311CF3012381F20123FD859123FF81912F01882309F4B2C1E9
:201BC000853239F423FD859123FF81912F01853229F490E0B3010E94B00FE7CF982FFF248E
:201BE000EE249924FFE1FF15D0F09B3269F09C3228F4903259F0933291F40EC09D3249F027
:201C0000903369F441E024C052E0F52A84E0F82A28C098E0F92A25C0E0E1FE2A22C0F7FCA2
:201C200029C0892F80538A3070F4F6FE05C0989C902C1124980E15C0E89CE02C1124E80EFE
:201C4000F0E2FF2A0EC09E3229F4F6FC6BC140E4F42A07C09C3619F450E8F52A02C09836E1
:201C600049F4F20123FD959123FF91912F01992309F0B8CF892F8554833018F0805283306D
:201C800038F444E050E0A40EB51E5FE359830FC0933631F0933779F0933509F056C020C07E
:201CA000F5018081898342E050E0A40EB51E610101E010E012C0F501C080D180F6FC03C009
:201CC0006FEF7FEF02C0692D70E042E050E0A40EB51EC6010E94A50F8C015FE7F52214C0DE
:201CE000F501C080D180F6FC03C06FEF7FEF02C0692D70E042E050E0A40EB51EC6010E94F4
:201D00009A0F8C0150E8F52AF3FE07C01AC080E290E0B3010E94B00FEA948E2D90E00817F5
:201D20001907A8F30EC0F601F7FC8591F7FE81916F0190E0B3010E94B00FE110EA9401505E
:201D400010400115110579F7EAC0943611F0993669F5F7FE08C0F501208131814281538158
:201D600084E090E00AC0F501808191819C01442737FD4095542F82E090E0A80EB91E9FE644
:201D8000F92257FF09C050954095309521953F4F4F4F5F4FE0E8FE2ACA01B901A1012AE0D9
:201DA00030E00E94DC0FD82ED21840C0953729F41F2D1F7E2AE030E01DC01F2D197F9F3614
:201DC00061F0903720F4983509F0ACC00FC0903739F0983709F0A6C004C028E030E00AC012
:201DE000106114FD146020E130E004C014FD166020E132E017FF08C0F501608171818281D4
:201E0000938144E050E008C0F50180819181BC0180E090E042E050E0A40EB51EA1010E94E1
:201E2000DC0FD82ED2188FE7F82EF122F6FE0BC05EEFF522D91438F4F4FE07C0F2FC05C070
:201E40008FEEF82202C01D2D01C0192DF4FE0DC0FE01ED0DF11D8081803319F499EEF922AF
:201E600008C01F5FF2FE05C003C08F2D867809F01F5F0F2DF3FC14C0F0FE0FC01E1510F084
:201E80009D2C0BC09D2C9E0C911A1E2D06C080E290E0B3010E94B00F1F5F1E15C0F304C070
:201EA0001E1510F4E11A01C0EE2404FF0FC080E390E0B3010E94B00F02FF1DC001FD03C0C4
:201EC00088E790E00EC088E590E00BC0802F867891F001FF02C08BE201C080E2F7FC8DE2CB
:201EE00090E0B3010E94B00F06C080E390E0B3010E94B00F9A94D914C0F3DA94F101ED0D87
:201F0000F11D808190E0B3010E94B00FDD20A9F706C080E290E0B3010E94B00FEA94EE2057
:201F2000C1F743CEF30166817781CB012B96E2E10C94AF81FC010590615070400110D8F712
:201F4000809590958E0F9F1F0895FC016150704001900110D8F7809590958E0F9F1F08954E
:201F60000F931F93CF93DF938C01EB018B8181FF1BC082FF0DC02E813F818C819D81281732
:201F8000390764F4E881F9810193F983E88306C0E885F985802F0995892B31F48E819F8145
:201FA00001969F838E8302C00FEF1FEFC801DF91CF911F910F910895FA01AA27283051F19D
:201FC000203181F1E8946F936E7F6E5F7F4F8F4F9F4FAF4FB1E03ED0B4E03CD0670F781F22
:201FE000891F9A1FA11D680F791F8A1F911DA11D6A0F711D811D911DA11D20D009F46894A4
:202000003F912AE0269F11243019305D3193DEF6CF010895462F4770405D4193B3E00FD002
:20202000C9F7F6CF462F4F70405D4A3318F0495D31FD4052419302D0A9F7EACFB4E0A69591
:202040009795879577956795BA95C9F700976105710508959B01AC010A2E0694579547952E
:2020600037952795BA95C9F7620F731F841F951FA01D0895DF93CF930F92CDB7DEB7FC018A
:202080006983A081B18112962D913C911397BE016F5F7F4F41E050E0F90109950F90CF91E1
:2020A000DF9108950F931F93DF93CF93CDB7DEB766970FB6F894DEBF0FBECDBF809100017C
:2020C00090910101A0910201B09103018F87988BA98BBA8BFE013F9644E650E08081F999F1
:2020E000FECF1FBA52BD41BD80BD0FB6F894FA9AF99A0FBE4F5F5F4F4836510511F03196B3
:20210000EDCFE2E5F4E08081F999FECF1FBA52BD41BD80BD0FB6F894FA9AF99A0FBE4F5FF2
:202120005F4F4837510511F03196EDCFE2E4F4E08081F999FECF1FBA52BD41BD80BD0FB6B6
:20214000F894FA9AF99A0FBE4F5F5F4F4838510511F03196EDCFE2E6F4E08081F999FECF4D
:202160001FBA52BD41BD80BD0FB6F894FA9AF99A0FBE4F5F5F4F4839510511F03196EDCF40
:20218000E6E7F4E08081F999FECF1FBA52BD41BD80BD0FB6F894FA9AF99A0FBE4F5F5F4F7A
:2021A0004C39510511F03196EDCFEAE7F4E08081F999FECF1FBA52BD41BD80BD0FB6F89447
:2021C000FA9AF99A0FBE4F5F5F4F403A510511F03196EDCFE2E7F4E08081F999FECF1FBA85
:2021E00052BD41BD80BD0FB6F894FA9AF99A0FBE4F5F5F4F443A510511F03196EDCFEAE8CA
:20220000F4E08081F999FECF1FBA52BD41BD80BD0FB6F894FA9AF99A0FBE4F5F5F4F483A44
:20222000510511F03196EDCFEEE3F4E08081F999FECF1FBA52BD41BD80BD0FB6F894FA9AB7
:20224000F99A0FBE4F5F5F4F4C3A510511F03196EDCFEEE7F4E08081F999FECF1FBA52BD71
:2022600041BD80BD0FB6F894FA9AF99A0FBE4F5F5F4F403B510511F03196EDCFE2E8F4E08F
:202280008081F999FECF1FBA52BD41BD80BD0FB6F894FA9AF99A0FBE4F5F5F4F443B510545
:2022A00011F03196EDCFE6E8F4E08081F999FECF1FBA52BD41BD80BD0FB6F894FA9AF99AFD
:2022C0000FBE4F5F5F4F483B510511F03196EDCFE5EDF9E08081F999FECF1FBA52BD41BD87
:2022E00080BD0FB6F894FA9AF99A0FBE4F5F5F4F443C510511F03196EDCF84EB90E09A83AA
:20230000898386E490E09C838B832FEF30E03E832D8382ED90E098878F8384E690E09A8700
:2023200089873C872B87FE0131968081F999FECF1FBA52BD41BD80BD0FB6F894FA9AF99A57
:202340000FBE4F5F5F4F463C510571F7FE0133968081F999FECF1FBA52BD41BD80BD0FB604
:20236000F894FA9AF99A0FBE4F5F5F4F483C510511F03196EDCFFE0135968081F999FECFF9
:202380001FBA52BD41BD80BD0FB6F894FA9AF99A0FBE4F5F5F4F4A3C510511F03196EDCF19
:2023A000FE0137968081F999FECF1FBA52BD41BD80BD0FB6F894FA9AF99A0FBE4F5F5F4F2D
:2023C0004C3C510511F03196EDCFFE0139968081F999FECF1FBA52BD41BD80BD0FB6F894F9
:2023E000FA9AF99A0FBE4F5F5F4F4E3C510511F03196EDCFFE013B968081F999FECF1FBA20
:2024000052BD41BD80BD0FB6F894FA9AF99A0FBE4F5F5F4F403D510511F03196EDCFE0EFAB
:20242000F9E08081F999FECF1FBA52BD41BD80BD0FB6F894FA9AF99A0FBE4F5F5F4F443D1E
:20244000510511F03196EDCFE5E9F2E08081F999FECF1FBA52BD41BD80BD0FB6F894FA9A9A
:20246000F99A0FBE4F5F5F4F483D510511F03196EDCFE9E9F2E08081F999FECF1FBA52BD55
:2024800041BD80BD0FB6F894FA9AF99A0FBE4F5F5F4F4C3D510511F03196EDCFEDE9F2E055
:2024A0008081F999FECF1FBA52BD41BD80BD0FB6F894FA9AF99A0FBE4F5F5F4F403E510524
:2024C00011F03196EDCF80E290E09E878D87FE013D968081F999FECF1FBA52BD41BD80BD18
:2024E0000FB6F894FA9AF99A0FBE413E510521F0319641EE50E0EDCF809104019091050192
:20250000A0910601B09107018B8B9C8BAD8BBE8BFE01739684E690E02081F999FECF1FBAC1
:2025200092BD81BD20BD0FB6F894FA9AF99A0FBE8736910519F001963196EECFE3EEF0E0D4
:2025400064918F0108C088EF9CE00E943A100F5F1F4FF80164916623B1F7EDEEF2E06491B2
:202560008F0108C088EF9CE00E943A100F5F1F4FF80164916623B1F788EF9CE06AE00E944A
:202580003A1066960FB6F894DEBF0FBECDBFCF91DF911F910F910895EF92FF920F931F938B
:2025A000DF93CF93CDB7DEB7E0970FB6F894DEBF0FBECDBFDE011196EDE3F3E080E1019055
:2025C0000D928150E1F7DE015196EDE2F3E080E101900D928150E1F7DE019196EDE1F3E06A
:2025E00080E101900D928150E1F789819A81AB81BC818093520490935304A0935404B09362
:20260000550489899A89AB89BC898093420490934304A0934404B093450489A19AA1ABA138
:20262000BCA18093620490936304A0936404B09365048D819E81AF81B885809356049093C9
:202640005704A0935804B09359048D899E89AF89B88D8093460490934704A0934804B093A9
:2026600049048DA19EA1AFA1B8A58093660490936704A0936804B093690489859A85AB853C
:20268000BC8580935A0490935B04A0935C04B0935D04898D9A8DAB8DBC8D80934A0490938D
:2026A0004B04A0934C04B0934D0489A59AA5ABA5BCA580936A0490936B04A0936C04B0939D
:2026C0006D048D859E85AF85B88980935E0490935F04A0936004B09361048D8D9E8DAF8D24
:2026E000B8A180934E0490934F04A0935004B09351048DA59EA5AFA5B8A980936E049093B5
:202700006F04A0937004B09371040E94D82780E090E8ABE3B5E48093760490937704A093E9
:202720007804B093790480937A0490937B04A0937C04B0937D0483EC95EFA8E2BFE3809381
:20274000720490937304A0937404B093750480E29EE4A0E0B0E080933E0490933F04A09320
:202760004004B093410420E030E040E050E020938A0430938B0440938C0450938D0480E063
:2027800090E0A0EFB1E480937E0490937F04A0938004B09381048DEC9CECACECBEE380939E
:2027A000820490938304A0938404B09385040F2EF0E0EF2EF0E0FF2EF0E80F2FFFE31F2FF5
:2027C000F02DE0928604F092870400938804109389042093DD093093DE094093DF095093A3
:2027E000E0092093D9093093DA094093DB095093DC092093D5093093D6094093D70950936D
:20280000D80980E090E0ACE0B1E48093950290939602A0939702B09398026DEC7CEC8CE4A7
:202820009EE30E94271A6093990270939A0280939B0290939C0260E070E08CE093E40E9481
:20284000351A60939D0270939E0280939F029093A0020E943219E092A102F092A2020093C0
:20286000A3021093A402E3EEF0E064918F0108C088EF9CE00E943A100F5F1F4FF8016491D3
:202880006623B1F7E9EEF0E064918F0108C088EF9CE00E943A100F5F1F4FF80164916623E1
:2028A000B1F788EF9CE06AE00E943A10E0960FB6F894DEBF0FBECDBFCF91DF911F910F916A
:2028C000FF90EF900895CF93DF93DB010D900020E9F71197A61BB70BEC01E881F981028083
:2028E000F381E02DAD010995DF91CF9108950F931F93CF93DF9303EE10E0F8016491E801BE
:2029000007C088EF9CE00E943A102196FE0164916623B9F7EDEDF2E06491EF0107C088EF5E
:202920009CE00E943A102196FE0164916623B9F788EF9CE06AE00E943A10F8016491C3EE83
:20294000D0E007C088EF9CE00E943A102196FE0164916623B9F740915204509153046091ED
:2029600054047091550485ED92E00E947A454091560450915704609158047091590482EDDF
:2029800092E00E947A4540915A0450915B0460915C0470915D048FEC92E00E947A45409123
:2029A0005E0450915F0460916004709161048CEC92E00E947A4588EF9CE068E071E00E943D
:2029C000631488EF9CE06AE00E943A10F8016491C3EED0E007C088EF9CE00E943A102196AB
:2029E000FE0164916623B9F7E2EBF2E06491EF0107C088EF9CE00E943A102196FE016491D5
:202A00006623B9F788EF9CE06AE00E943A10F8016491C3EED0E007C088EF9CE00E943A105F
:202A20002196FE0164916623B9F74091420450914304609144047091450489EA92E00E9469
:202A40007A454091460450914704609148047091490486EA92E00E947A4540914A045091A2
:202A60004B0460914C0470914D0483EA92E00E947A4540914E0450914F0460915004709197
:202A8000510480EA92E00E947A4588EF9CE068E071E00E94631488EF9CE06AE00E943A10D6
:202AA000F8016491C3EED0E007C088EF9CE00E943A102196FE0164916623B9F7E2E8F2E0A1
:202AC0006491EF0107C088EF9CE00E943A102196FE0164916623B9F788EF9CE06AE00E94A8
:202AE0003A10F8016491C3EED0E007C088EF9CE00E943A102196FE0164916623B9F74091E2
:202B0000620450916304609164047091650489E792E00E948C3F409166045091670460917D
:202B200068047091690486E792E00E948C3F40916A0450916B0460916C0470916D0483E7A3
:202B400092E00E948C3F40916E0450916F04609170047091710480E792E00E948C3F88EF67
:202B60009CE068E071E00E94631488EF9CE06AE00E943A10F8016491C3EED0E007C088EF71
:202B80009CE00E943A102196FE0164916623B9F7EBE3F2E06491EF0107C088EF9CE00E9408
:202BA0003A102196FE0164916623B9F788EF9CE06AE00E943A10F8016491C3EED0E007C0A8
:202BC00088EF9CE00E943A102196FE0164916623B9F740917604509177046091780470911D
:202BE000790482E392E00E947A4540917A0450917B0460917C0470917D048FE292E00E94F9
:202C00007A4588EF9CE068E071E00E94631488EF9CE06AE00E943A10F8016491C3EED0E0D8
:202C200007C088EF9CE00E943A102196FE0164916623B9F7ECE7F1E06491EF0107C088EF43
:202C40009CE00E943A102196FE0164916623B9F788EF9CE06AE00E943A10F8016491C3EE60
:202C6000D0E007C088EF9CE00E943A102196FE0164916623B9F7409172045091730460918A
:202C800074047091750483E791E00E947A4540918A0450918B0460918C0470918D0480E7BD
:202CA00091E00E947A4540913E0450913F0460914004709141048DE691E00E948C3F40916E
:202CC0007E0450917F0460918004709181048AE691E00E947A454091820450918304609121
:202CE00084047091850487E691E00E947A454091860450918704609188047091890484E647
:202D000091E00E947A4588EF9CE068E071E00E94631488EF9CE06AE00E943A10F801649125
:202D2000C3EED0E007C088EF9CE00E943A102196FE0164916623B9F7E2E5F1E06491EF012B
:202D400007C088EF9CE00E943A102196FE0164916623B9F788EF9CE06AE00E943A10F801C7
:202D60006491C3EED0E007C088EF9CE00E943A102196FE0164916623B9F74091D5095091E3
:202D8000D6096091D7097091D80989E491E00E947A454091D9095091DA096091DB09709115
:202DA000DC0986E491E00E947A454091DD095091DE096091DF097091E00983E491E00E9436
:202DC0007A4588EF9CE068E071E00E94631488EF9CE06AE00E943A10F8016491C3EED0E017
:202DE00007C088EF9CE00E943A102196FE0164916623B9F7E5E3F1E06491EF0107C088EF8D
:202E00009CE00E943A102196FE0164916623B9F788EF9CE06AE00E943A10F8016491C3EE9E
:202E2000D0E007C088EF9CE00E943A102196FE0164916623B9F74091950250919602609186
:202E40009702709198028BE291E00E947A456091990270919A0280919B0290919C020E94C7
:202E60002E1AAB01BC0188E291E00E947A4560919D0270919E0280919F029091A0020E941D
:202E80003C1AAB01BC0185E291E00E947A4588EF9CE068E071E00E94631488EF9CE06AE058
:202EA0000E943A10DF91CF911F910F9108950F931F93DF93CF93CDB7DEB766970FB6F894DA
:202EC000DEBF0FBECDBF8091040190910501A0910601B09107018B8B9C8BAD8BBE8BFE0181
:202EE0003F9604E610E0F999FECF12BD01BDF89A80B580830F5F1F4F0836110511F0319675
:202F0000F2CFCE014396BE01615F7F4F43E050E00E948B0D009709F096C1E2E5F4E0F9995A
:202F2000FECF12BD01BDF89A80B580830F5F1F4F0837110511F03196F2CFE2E4F4E0F99987
:202F4000FECF12BD01BDF89A80B580830F5F1F4F0838110511F03196F2CFE2E6F4E0F99964
:202F6000FECF12BD01BDF89A80B580830F5F1F4F0839110511F03196F2CF0E94D827E6E703
:202F8000F4E0F999FECF12BD01BDF89A80B580830F5F1F4F0C39110511F03196F2CFEAE716
:202FA000F4E0F999FECF12BD01BDF89A80B580830F5F1F4F003A110511F03196F2CFE2E709
:202FC000F4E0F999FECF12BD01BDF89A80B580830F5F1F4F043A110511F03196F2CFEAE8DC
:202FE000F4E0F999FECF12BD01BDF89A80B580830F5F1F4F083A110511F03196F2CFEEE3B9
:20300000F4E0F999FECF12BD01BDF89A80B580830F5F1F4F0C3A110511F03196F2CFEEE790
:20302000F4E0F999FECF12BD01BDF89A80B580830F5F1F4F003B110511F03196F2CFE2E886
:20304000F4E0F999FECF12BD01BDF89A80B580830F5F1F4F043B110511F03196F2CFE6E85E
:20306000F4E0F999FECF12BD01BDF89A80B580830F5F1F4F083B110511F03196F2CFE5ED36
:20308000F9E0F999FECF12BD01BDF89A80B580830F5F1F4F043C110511F03196F2CFFE01E7
:2030A0003196F999FECF12BD01BDF89A80B580830F5F1F4F063C110599F7FE013396F99975
:2030C000FECF12BD01BDF89A80B580830F5F1F4F083C110511F03196F2CFFE013596F999B1
:2030E000FECF12BD01BDF89A80B580830F5F1F4F0A3C110511F03196F2CFFE013796F9998D
:20310000FECF12BD01BDF89A80B580830F5F1F4F0C3C110511F03196F2CFFE013996F99968
:20312000FECF12BD01BDF89A80B580830F5F1F4F0E3C110511F03196F2CFFE013B96F99944
:20314000FECF12BD01BDF89A80B580830F5F1F4F003D110511F03196F2CFE0EFF9E0F99959
:20316000FECF12BD01BDF89A80B580830F5F1F4F043D110511F03196F2CFE5E9F2E0F9993D
:20318000FECF12BD01BDF89A80B580830F5F1F4F083D110511F03196F2CFE9E9F2E0F99915
:2031A000FECF12BD01BDF89A80B580830F5F1F4F0C3D110511F03196F2CFEDE9F2E0F999ED
:2031C000FECF12BD01BDF89A80B580830F5F1F4F003E110511F03196F2CFFE013D96F999AE
:2031E000FECF12BD01BDF89A80B58083013E110521F0319601EE10E0F2CF0E943219E3EE20
:20320000F0E064918F0108C088EF9CE00E943A100F5F1F4FF80164916623B1F7EBE0F1E01B
:2032200064918F0108C088EF9CE00E943A100F5F1F4FF80164916623B1F788EF9CE06AE02A
:203240000E943A1002C00E94CC120E94771466960FB6F894DEBF0FBECDBFCF91DF911F9150
:203260000F91089560E070E08FE793E42091990230919A0240919B0250919C020E94487D97
:20328000DC019B01AC012093F8033093F9034093FA035093FB03CB018093FC039093FD03E9
:2032A000A093FE03B093FF030895FC0197FF03C08091D10303C0EE52FC4F808190E0089561
:2032C0002F923F924F925F926F927F928F929F92AF92BF92CF92DF92EF92FF920F931F935C
:2032E000CF93DF93EC0121E030E0A901440F551F440F551FFA01EB54FC4F85919491C81725
:20330000D9070CF059C0B90161507040660F771F660F771FCB0189549C4FFC0105911491BB
:203320006B547C4FFB01C590D490FA01E954FC4FE590F490FA01EB54FC4FA590B490B8011B
:20334000882777FD8095982F0E94E37D1B012C01CC19DD09BE01882777FD8095982F0E94F8
:20336000E37D3B014C01E01AF10A0027F7FC0095102FC801B7010E94E37D9B01AC01C401F0
:20338000B3010E9421807B018C01AC18BD08CC24B7FCC094DC2CC601B5010E94E37D9B018A
:2033A000AC01C801B7010E94487D9B01AC01C201B1010E94687C19C0822F8F5F2F5F3F4FA0
:2033C0002034310509F091CF803429F0E0E070E080E060E00CC0E3EBF4E065917491882775
:2033E00077FD8095982F0E94E37DE62F692F2E2F372F482F562FB901CA01DF91CF911F910A
:203400000F91FF90EF90DF90CF90BF90AF909F908F907F906F905F904F903F902F9008954D
:2034200008951092B9031092B8031092D20345981092BB031092BA031092D3038E981092E1
:20344000BD031092BC031092D103449808952DEB37E346E05EE30E94218008952DEB37E3B1
:2034600046E05EE30E94487D08952DEB37E346E05EE30E94487D08952DEB37E346E05EE3AB
:203480000E9421800895CF93DF9344980E94843F882309F5EDEFF2E06491EF0107C088EFBD
:2034A0009CE00E943A102196FE0164916623B9F7E4E0F3E06491EF0107C088EF9CE00E94E8
:2034C0003A102196FE0164916623B9F788EF9CE06AE00E943A100E94B03FDF91CF91089597
:2034E0001F93CF93DF93182F0E94111A0E94843F882381F5EDEFF2E06491EF0107C088EFDB
:203500009CE00E943A102196FE0164916623B9F7412F50E0662757FD6095762F88EF9CE051
:203520000E941E7988EF9CE06AE00E943A10EEE3F3E06491EF0107C088EF9CE00E943A10FA
:203540002196FE0164916623B9F788EF9CE06AE00E943A100E94B03FDF91CF911F910895B0
:203560001F93CF93DF93182F0E94111A0E94843F882381F5EDEFF2E06491EF0107C088EF5A
:203580009CE00E943A102196FE0164916623B9F7412F50E0662757FD6095762F88EF9CE0D1
:2035A0000E941E7988EF9CE06AE00E943A10EBE6F3E06491EF0107C088EF9CE00E943A107A
:2035C0002196FE0164916623B9F788EF9CE06AE00E943A100E94B03FDF91CF911F91089530
:2035E0001F920F920FB60F920BB60F9211242F933F934F935F936F937F938F939F93AF936A
:20360000BF93EF93FF939091A902992329F58091D2038093DE03882311F0459A01C045989B
:203620008091D3038093DD03882311F08E9A01C08E988091D1038093DC03882311F0449A94
:2036400001C044988091D00386958093D403882311F0589A01C058988091DE03891708F407
:2036600045988091DD03891708F48E988091DC03891708F444988091D403891708F45898DE
:203680009F5F9F779093A9028091AA02843009F46BC0853050F4813009F1813098F0823020
:2036A000D9F1833009F094C043C0863009F484C0863008F465C0873009F480C0883009F0CA
:2036C00087C084C010927B0081E480937C0080917A00806480937A0081E01BC0809178008D
:2036E00090917900A0E0B0E02091EB033091EC034091ED035091EE03280F391F4A1F5B1FCC
:203700002093EB033093EC034093ED035093EE0382E08093AA025CC010927B0082E48093EC
:203720007C0080917A00806480937A0083E0F1CF8091780090917900A0E0B0E02091DF0328
:203740003091E0034091E1035091E203280F391F4A1F5B1F2093DF033093E0034093E103E6
:203760005093E20384E0D5CF10927B0080E480937C0080917A00806480937A0085E0C9CF70
:203780008091780090917900A0E0B0E02091E7033091E8034091E9035091EA03280F391F95
:2037A0004A1F5B1F2093E7033093E8034093E9035093EA0386E0ADCF87E0ABCF1092AA023B
:2037C0008091EF038F5F8093EF0302C01092AA028091EF03803108F48AC08091D503882355
:2037E000C1F48091EB039091EC039093BF038093BE038091E7039091E8039093C10380934B
:20380000C0038091DF039091E0039093CB038093CA0381E08093D5031092EF031092EB03AD
:203820001092EC031092ED031092EE031092E7031092E8031092E9031092EA031092E30314
:203840001092E4031092E5031092E6031092DF031092E0031092E1031092E2032091BE0342
:203860003091BF038091D6039091D703821793071CF080E00E94B01A2091BE033091BF03E0
:203880008091A5029091A602281739071CF080E00E94701A2091C0033091C1038091D803AB
:2038A0009091D903821793071CF081E00E94B01A2091C0033091C1038091A7029091A80281
:2038C000281739071CF081E00E94701A2091CA033091CB038091DA039091DB0382179307A3
:2038E00034F01092BD031092BC030E94431AFF91EF91BF91AF919F918F917F916F915F91F2
:203900004F913F912F910F900BBE0F900FBE0F901F9018952F926F927F928F929F92AF9202
:20392000BF92CF92DF92EF92FF920F931F93DF93CF93CDB7DEB729970FB6F894DEBF0FBE96
:20394000CDBF8C01E62E61E06E1588F5EDEFF2E064916F0109C088EF9CE00E943A100894A2
:20396000C11CD11CF60164916623A9F74E2D50E0662757FD6095762F88EF9CE00E941E7916
:20398000E8E9F3E064916F0109C088EF9CE00E943A100894C11CD11CF60164916623A9F7FB
:2039A00088EF9CE06AE00E943A100E94F03FAE2DB0E0FD01EE0FFF1FE35BFC4F608171812D
:2039C00079876887672B09F49FC0AF5ABC4F7C917B832224239479C0222D30E0A901440F59
:2039E000551F440F551FE885F985E40FF51F85919491081719070CF067C0C9010197880F04
:203A0000991F880F991FFC013296A885B985EA0FFB1FC590D4908A0F9B1FFC016591749158
:203A20007A836983FA013296EA0FFB1FE590F490FD01E40FF51FA590B490B601882777FD76
:203A40008095982F0E94E37D6C837D838E839F8389819A81081B190BB801882777FD809509
:203A6000982F0E94E37D3B014C01EC18FD080027F7FC0095102FC801B7010E94E37D9B01DE
:203A8000AC01C401B3010E9421807B018C01A981BA81AA1ABB0ACC24B7FCC094DC2CC60100
:203AA000B5010E94E37D9B01AC01C801B7010E94487D9B01AC016C817D818E819F810E9418
:203AC000687CE62F692F09C02394BB812B1608F483CFE0E070E080E060E0FB812F1679F52B
:203AE000E22DF0E0EE0FFF1FEE0FFF1F329768857985E60FF71F65917491882777FD8095BF
:203B0000982F0E94E37D19C0B801882777FD8095982F0E94E37D20E030E04AEF5EE30E941D
:203B2000218020E030E040E85DE30E94218020E030E040E050E00E94687CE62F692F2E2F39
:203B4000372F482F562FB901CA0129960FB6F894DEBF0FBECDBFCF91DF911F910F91FF90C9
:203B6000EF90DF90CF90BF90AF909F908F907F906F902F900895CF92DF92EF92FF920F932C
:203B80001F93CF93DF9360E070E08FE793E42091990230919A0240919B0250919C020E94EA
:203BA000487DE091AB02F091AC020F2EF0E0EF2EF0E0FF2EF0E00F2FF0E01F2FF02DE09211
:203BC000F003F092F1030093F2031093F3039B01482F592F2093F8033093F9034093FA0383
:203BE0005093FB03F093AE02E093AD02E092F403F092F5030093F6031093F703CB01DA01DC
:203C00008093FC039093FD03A093FE03B093FF033D9A869A3C9A509A8091D003869580932D
:203C2000D40387ED80937A0010927E0080917E00826080937E0080917E00816080937E0089
:203C400080917E00846080937E0080E888BD80916E00846080936E006AEF70E080E090E056
:203C60000E94907581E090E0909301048093000409C08091A5029091A60240979093A602A1
:203C80008093A5028091A5029091A60260E00E948A1C20E030E040E85FE30E94417D87FD03
:203CA000E8CF83E191E09093AC028093AB0209C08091D6039091D70340969093D703809353
:203CC000D6038091D6039091D70360E00E948A1C20E030E849E853E40E944F7F181644F349
:203CE00081E090E0909303048093020409C08091A7029091A80240979093A8028093A70202
:203D00008091A7029091A80261E00E948A1C20E030E040E85FE30E94417D87FDE8CF83E11C
:203D200091E09093AE028093AD0209C08091D8039091D90340969093D9038093D8038091F7
:203D4000D8039091D90361E00E948A1C20E030E849E853E40E944F7F181644F3C091DA037F
:203D6000D091DB03EC2EDD2ECE010E946019609620E030E046E153E40E944F7F181694F36C
:203D8000E092DA03D092DB03DF91CF911F910F91FF90EF90DF90CF9008958091BE03909108
:203DA000BF0360E00E948A1C6093C2037093C3038093C4039093C5038091C0039091C103BA
:203DC00061E00E948A1C6093C6037093C7038093C8039093C9038091CA039091CB030E9495
:203DE00060196093CC037093CD038093CE039093CF038FB7F8941092D5038FBF08950F9303
:203E00001F93082F662311F410E001C01FEF802F0E941173E02FF0E080E0111181E0082E9F
:203E20000E944A731F910F9108951F9310E06091C2037091C3038091C4039091C50320E056
:203E400030E048E452E40E944F7F18160CF411E06091C6037091C7038091C8039091C90313
:203E600020E030E048E452E40E944F7F18160CF41160612F70E06170707080E190E00E94BD
:203E8000FF1E1F9108952F923F924F925F926F927F928F929F92AF92BF92CF92DF92EF920B
:203EA000FF920F931F93DF93CF93CDB7DEB76A970FB6F894DEBF0FBECDBF8091D503882354
:203EC00009F44CC20E94CD1E8091950290919602A0919702B09198028D8B9E8BAF8BB88F82
:203EE0008091990290919A02A0919B02B0919C02898B9A8BAB8BBC8B80919D0290919E0285
:203F0000A0919F02B091A0028D879E87AF87B88BA2EDB3E0BA87A987E6E2F4E0F887EF831A
:203F20008CE094E09E838D83AEE0B4E0BC83AB83EEE2F4E0FA83E9831A8E198E1C861B86C2
:203F4000E98DFA8DEE53FC4F6080718082809380EB85FC85E854FC4FC080D180B601882783
:203F600077FD8095982F0E94E37DA40193010E94677C7B018C01E98DFA8DEC5FFB4F6083B3
:203F800071838283938320E030E048E452E40E944F7F18162CF4E1E0AD81BE81EC93D7C09E
:203FA000C801B70120E030E048E452EC0E94417D87FD02C0CD2829F4E1E0AD81BE81EC93A1
:203FC000B1C0AD81BE818C91882369F080E090E0A0E0B0E0EB81FC8180839183A283B383A7
:203FE000AD81BE811C926D897E898F89988DA80197010E9421801B012C01E98DFA8DEA5E5A
:20400000FB4F6083718382839383C801B701EB81FC8120813181428153810E94687C5B012E
:204020006C01E98DFA8DE051FC4FE080F18002811381A80197010E94417D87FD12C0E98D45
:20404000FA8DE850FC4FE080F18002811381C601B501A80197010E944F7F181614F0860187
:204060007501AB81BC81ED92FD920D931C93139769897A898B899C89A80197010E942180A8
:204080005B016C01E98DFA8DE25EFB4F6083718382839383C401B301EF81F8852081318125
:2040A000428153810E94677C9B01AC016D857E858F8598890E94218020ED3CEC4CE45DE389
:2040C0000E9421807B018C01A981BA816D917D918D919C9123E333E343E75FE30E9421800D
:2040E0009B01AC01C801B7010E94687C7B018C01E981FA816083718382839383C201B1011B
:20410000A60195010E94687CA80197010E94677C7B018C0120E030E040E050E00E94417D4D
:2041200088235CF40F2EF0E0EF2EF0E0FF2EF0E00F2FF0E01F2FF02D14C0C801B70120E0BF
:2041400030E04FE753E40E944F7F181654F40F2EF0E0EF2EF0E0FF2EFFE70F2FF3E41F2F8C
:20416000F02DAF81B8856D927D928D929C921397EB85FC85E050FC4F60817181882777FD4E
:204180008095982F0E94E37D9B01AC01C401B3010E944F7F1816F4F4EB85FC85E555FD4F82
:2041A00060817181882777FD8095982F0E94E37D9B01AC01C401B3010E94417D882354F416
:2041C000C801B7010E94B07D75956795E985FA85608303C0A985BA851C92E98DFA8D349614
:2041E000FA8FE98F8B859C8502969C878B87A985BA851196BA87A987EF81F8853496F88705
:20420000EF838D819E8101969E838D83AB81BC811496BC83AB83E981FA813496FA83E9831F
:20422000898D9A8D089709F08BCE0FB6F8948091F30C9091F40CA091F50CB091F60C0FBE8C
:2042400020913604309137044091380450913904821B930BA40BB50B855C9940A040B04018
:20426000A8F00E94151F0FB6F8948091F30C9091F40CA091F50CB091F60C0FBE80933604BF
:2042800090933704A0933804B09339040FB6F8948091F30C9091F40CA091F50CB091F60CDA
:2042A0000FBE20913A0430913B0440913C0450913D04821B930BA40BB50B88589341A040D1
:2042C000B04008F44BC00FB6F8948091F30C9091F40CA091F50CB091F60C0FBE80933A04D2
:2042E00090933B04A0933C04B0933D04E090CC03F090CD030091CE031091CF03C801B70180
:2043000020E030E040E85FE30E944F7F18161CF5C801B70120E030E046E153E40E94417D25
:204320008823CCF46091BC037091BD03882777FD8095982F0E94E37D9B01AC01C801B701D6
:204340000E944F7F88231CF01092D10307C08FE78093D10303C01092D10344986A960FB6C2
:20436000F894DEBF0FBECDBFCF91DF911F910F91FF90EF90DF90CF90BF90AF909F908F90E3
:204380007F906F905F904F903F902F9008952F923F924F925F926F927F928F929F92AF920D
:2043A000BF92CF92DF92EF92FF920F931F93DF93CF93CDB7DEB7EB970FB6F894DEBF0FBE4A
:2043C000CDBF6B8F7C8F8D8F9E8F58A34F8F3AA329A30FB6F8942091F30C3091F40C4091EE
:2043E000F50C5091F60C0FBE298B3A8B4B8B5C8B4F8D58A1433051053CF088EF9CE069E0D0
:2044000071E00E94631469C488EF9CE063E371E00E94631488EF9CE06AE00E943A100E9497
:20442000111A8F8D98A197FF04C08FE78093D10306C0EF8DF8A1EE52FC4F8FE780832989B4
:204440003A894B895C892D873E874F87588B29873A874B875C871AAA1BAA1CAA1DAA1E8ACA
:204460001D8AFF24F3941D821E821F8218861FE7A12EB12CC12CD12CBFE72B2E312C412C08
:20448000512C80E090E0A0E0B0E089839A83AB83BC830F2EF0E06F2EF0E47F2EFCE18F2E64
:2044A000F6E49F2EF02DAF8DB8A1AE52BC4FBCA3ABA3E7EAF5E0B491BDA3E2EAF5E024914A
:2044C0002EA3EBE9F5E034913FA3E4E9F5E0449148A7EEE8F5E0549159A7E8E8F5E084910B
:2044E0008AA7EAE7F5E094919BA7E4E7F5E0A491ACA7EEE6F5E0B491BDA7E8E6F5E02491AC
:204500002EA74F8D58A1440F551F440F551F4E535C4F58AB4FA7EEE2F5E0549159AB80917F
:20452000D503882309F4D3C20E94CD1E8F8D98A197FF0DC09091CC039AABA091CD03ABAB95
:20454000B091CE03BCABE091CF03EDAB11C0AFA5B8A9BC91BAABEFA5F8A9F181FBABAFA52E
:20456000B8A91296BC91BCABEFA5F8A9F381FDAB69817A818B819C812AA93BA94CA95DA96D
:204580000E944F7F181644F08AA99BA9ACA9BDA989839A83AB83BC83C401B3012AA93BA951
:2045A0004CA95DA90E94417D87FD06C08AA99BA9ACA9BDA93C014D01FF2009F461C06AA949
:2045C0007BA98CA99DA92B8D3C8D4D8D5E8D0E944F7F18160CF07BC20FB6F8948091F30CBE
:2045E0009091F40CA091F50CB091F60C0FBE29853A854B855C85821B930BA40BB50B8958AF
:204600009341A040B04008F462C2D601C50182199309A409B5094F8D58A157FF07C0B5955B
:20462000A795979587958093D10307C0B595A79597958795EBA1FCA180830FB6F89420914C
:20464000F30C3091F40C4091F50C5091F60C0FBE2D873E874F87588B89859A85AB85BC8548
:20466000281B390B4A0B5B0B2D833E834F8358872B8D3C8D4D8D5E8D29833A834B835C837A
:204680006AA97BA98CA99DA92B8D3C8D4D8D5E8D0E94417D88230CF019C20FB6F8948091DE
:2046A000F30C9091F40CA091F50CB091F60C0FBE2D853E854F855889821B930BA40BB50BC4
:2046C00089589341A040B04008F400C20FB6F8948091F30C9091F40CA091F50CB091F60CA0
:2046E0000FBE89879A87AB87BC87AD89BE89AB2B09F4C7C189859A85AB85BC852D853E855C
:204700004F855889821B930BA40BB50B2D813E814F815885280F391F4A1F5B1F2F8B388F2D
:20472000498F5A8F2D813E814F815885281B390B4A0B5B0BCA01B901A20191010E94F3808D
:204740002F89388D498D5A8D0E9453812A0D3B1D4C1D5D1D24313105410551055CF474E16B
:20476000272E312C412C512C64E1A62EB12CC12CD12C1FC059016A013CEEA316B104C104BC
:20478000D1042CF05BEEA52EB12CC12CD12C40E8A416B104C104D1041CF41501260109C0FE
:2047A0004EEF242E312C412C512C2A183B084C085D086DA107EA15E008C088EF9CE00E9494
:2047C0003A100F5F1F4FF80164916623B1F788EF9CE0B601A5010E941E796EA102EA15E01B
:2047E00008C088EF9CE00E943A100F5F1F4FF80164916623B1F788EF9CE0B201A1010E942D
:204800001E796FA10BE915E008C088EF9CE00E943A100F5F1F4FF80164916623B1F788EFEF
:204820009CE0B401A30122E00E94307968A504E915E008C088EF9CE00E943A100F5F1F4FE4
:20484000F80164916623B1F788EF9CE049815A816B817C8122E00E94307988EF9CE06AE02E
:204860000E943A102D893E89233031050CF409C1C201B1010E94E37D20E030E040E850E499
:204880000E9421807B018C0169817A818B819C81A40193010E94677C20ED3FE049E450E473
:2048A0000E94218020E030E040E05FE30E9421809B01AC01C801B7010E94487D7B018C01C6
:2048C0006F89788D898D9A8D0E94E37D20E030E04AE754E40E94487D3B014C0169A54EE8EF
:2048E00055E05BAF4AAF0BC088EF9CE00E943A108AAD9BAD01969BAF8AAFFC0164916623C2
:2049000099F788EF9CE0B801A70122E00E9430796AA528E835E03BAF2AAF0CC088EF9CE0B0
:204920000E943A104AAD5BAD4F5F5F4F5BAF4AAFFA016491662391F788EF9CE0B401A301E0
:2049400022E00E94307988EF9CE06AE00E943A10C801B7012AE939E949E15FE30E9421807C
:204960007B018C016BA52AE735E03BAF2AAF0CC088EF9CE00E943A104AAD5BAD4F5F5F4F2F
:204980005BAF4AAFFA016491662391F788EF9CE06AE00E943A106CA524E735E03BAF2AAFF6
:2049A0000CC088EF9CE00E943A104AAD5BAD4F5F5F4F5BAF4AAFFA016491662391F788EF76
:2049C0009CE0B801A70122E00E94307988EF9CE06AE00E943A106DA52EE635E03BAF2AAF86
:2049E0000CC088EF9CE00E943A104AAD5BAD4F5F5F4F5BAF4AAFFA016491662391F7C801E4
:204A0000B701A80197010E94687CA40193010E94487DAB01BC0188EF9CE022E00E943079CE
:204A200088EF9CE06AE00E943A106EA528E635E03BAF2AAF0CC088EF9CE00E943A104AADB2
:204A40005BAD4F5F5F4F5BAF4AAFFA016491662391F7C801B701A40193010E94218020E0F1
:204A600030E040E05EE30E942180AB01BC0188EF9CE022E00E94307988EF9CE06AE00E94FA
:204A80003A10D201C1018A0D9B1DAC1DBD1D2F8D38A137FF07C0B595A795979587958093D2
:204AA000D10307C0B595A79597958795EBA1FCA180832D893E892F5F3F4F3E8B2D8B6B8C50
:204AC0007C8C8D8C9E8CFF24F39401C0FF246B8D7C8D8D8D9E8D20E030E048E452E40E94A3
:204AE000687C9B01AC016AA97BA98CA99DA90E944F7F181684F4EEE3F5E064918F0108C0CE
:204B000088EF9CE00E943A100F5F1F4FF80164916623B1F7E2C00FB6F8948091F30C909197
:204B2000F40CA091F50CB091F60C0FBE29893A894B895C89821B930BA40BB50B815D9740A6
:204B4000A040B04008F46BC04F8D58A157FF16C01091D103E8E3F5E06491FBAFEAAF0BC045
:204B600088EF9CE00E943A108AAD9BAD01969BAF8AAFFC016491662399F715C0ABA1BCA134
:204B80001C91E2E3F5E06491FBAFEAAF0AC088EF9CE00E943A10EAADFBAD3196FBAFEAAFA4
:204BA00064916623A1F7012F10E088EF9CE04AA95BA96CA97DA922E00E94307969A92EE22B
:204BC00035E03BAF2AAF0CC088EF9CE00E943A104AAD5BAD4F5F5F4F5BAF4AAFFA01649104
:204BE000662391F7A801662757FD6095762F88EF9CE00E941E7988EF9CE06AE00E943A102B
:204C00000FB6F8942091F30C3091F40C4091F50C5091F60C0FBE298B3A8B4B8B5C8B0FB655
:204C2000F8948091F30C9091F40CA091F50CB091F60C0FBE0FB6F8942091F30C3091F40CB3
:204C40004091F50C5091F60C0FBE2EAB3FAB48AF59AF2D853E854F855889821B930BA40BFC
:204C6000B50B29853A854B855C85821B930BA40BB50B2EA93FA948AD59AD820F931FA41FEC
:204C8000B51F81589F44A241B04080F0E1E1F5E064918F0108C088EF9CE00E943A100F5F10
:204CA0001F4FF80164916623B1F717C02D893E8949A15AA1421753070CF031CCE5EBF4E0DE
:204CC00064918F0108C088EF9CE00E943A100F5F1F4FF80164916623B1F788EF9CE06AE070
:204CE0000E943A10EB960FB6F894DEBF0FBECDBFCF91DF911F910F91FF90EF90DF90CF9004
:204D0000BF90AF909F908F907F906F905F904F903F902F9008953F924F925F926F927F92FB
:204D20008F929F92AF92BF92CF92DF92EF92FF920F931F93CF93DF938091AE04882309F418
:204D4000F6C08090B3029090B402A090B502B090B6026091B8037091B903882777FD809582
:204D6000982F0E94E37D20E030E040E050E40E94687CA50194010E94417D87FDD8C0309009
:204D800080090F2EF0E04F2EF0E05F2EF0E06F2EF0E07F2EF02DCDE4D0E058C0232D30E0C3
:204DA0002C9FF0012D9FF00D3C9FF00D1124E155FB4F80819181A281B3810097A105B10584
:204DC00081F484819581A681B7810097A105B10541F480859185A285B3850097A105B1054F
:204DE00091F12C9F60012D9FD00C3C9FD00C11248FEA94E0C80ED91EF601648575858685D2
:204E000097850E94E37D7B018C01F60160897189828993890E94E17D9B01AC01C801B701A0
:204E20000E94487DF60122A133A144A155A10E9421807B018C01A30192010E944F7F181681
:204E400014F4270138013394FFE03F2280917F09381609F0A3CFC301B2012091B7023091EE
:204E6000B8024091B9025091BA020E9421809B01AC01C501B4010E94687C7B018C01A50113
:204E800094010E94417D87FD02C0470158011091AF020091B002F090B102E090B202C50184
:204EA000B401212F302F4F2D5E2D0E944F7F181634F4812F902FAF2DBE2D4C015D01409010
:204EC0009509509096096090970970909809C301B201A50194010E944F7F1816C4F4C501B6
:204EE000B40120E037ED43EA5CE30E9421807B018C01C301B20128E431EE4AE75FE30E946A
:204F00002180A80197010E94687C4B015C018092950990929609A0929709B0929809C50194
:204F2000B4010E94B07D7093B9036093B803DF91CF911F910F91FF90EF90DF90CF90BF9035
:204F4000AF909F908F907F906F905F904F903F9008952091050A9091800980917F099817CA
:204F600011F4E22F17C040918009242F30E08DE490E0289FF001299FF00D389FF00D112420
:204F8000E950FB4FE08102C04F5F4F7080917F094817D1F7E093D0030E948B260895609315
:204FA000BB027093BC028093BD029093BE0208950F931F93CF93DF93C0E0D0E08E010257C1
:204FC0001B4FFE01EE59FB4F60817181828193810E94E17DFE01EE5AFB4F20813181428146
:204FE00053810E9421800E94B57DF80160837183828393832496C031D10501F7DF91CF9192
:205000001F910F910895FC01608171818281938120915E0430915F0440916004509161040A
:205020000E9421800E94F17F6093AA047093AB048093AC049093AD048AEA94E00E94AB6894
:2050400008958F929F92AF92BF92CF92DF92EF92FF920F931F93FC018B015A014901608188
:20506000718182819381209152043091530440915404509155040E9421800E94F17F3EE929
:20508000C32E34E0D32E60939E0470939F048093A0049093A104F80160817181828193816D
:2050A000209156043091570440915804509159040E9421800E94F17F24E0E22EF12CEC0CE0
:2050C000FD1C6093A204F701718382839383F501608171818281938120915A0430915B0408
:2050E00040915C0450915D040E9421800E94F17F8601085F1F4F6093A604F80171838283FD
:205100009383F401608171818281938120915E0430915F0440916004509161040E942180A5
:205120000E94F17FF6013C966093AA04718382839383C601B701A8019F010E94716880E041
:2051400090E0A0E0B0E08093810990938209A0938309B09384098093850990938609A0936F
:205160008709B09388098093890990938A09A0938B09B0938C0980938D0990938E09A0933B
:205180008F09B09390098093910990939209A0939309B09394091F910F91FF90EF90DF90B4
:2051A000CF90BF90AF909F908F9008958F929F92AF92BF92CF92DF92EF92FF920F931F93FB
:2051C000CF93DF93EC016B01009709F45CC08FA9882309F058C0EEA0FFA008A519A5FB016A
:2051E000B6A0A7A090A481A4C801B7012B2D3A2D492D582D0E94417D88230CF044C0C801AA
:20520000B701A80197010E9421807B018C016AA97BA98CA99DA9905820E030E040E050EC43
:205220000E9421802EA53FA548A959A90E9421809B01AC01C801B7010E94687C0E948E803E
:205240007B018C016B2D7A2D892D982D9701A8010E94417D882324F4EB2CFA2C092D182D6F
:205260006B2D7A2D892D982D9701A8010E94417D882349F0C701D801F60186A397A3A0A7AD
:20528000B1A781E086ABDF91CF911F910F91FF90EF90DF90CF90BF90AF909F908F900895AF
:2052A000EF92FF920F931F93CF93DF93F090800900E010E020E030E04DE4E42E12C0FE9C1C
:2052C000E0011124C155DB4FC901B801AE010E94D6288F2D8F5F803109F480E0F82E98012F
:2052E0008E0180917F09F81651F7C901B80140E050E00E94D628DF91CF911F910F91FF900E
:20530000EF900895AF92BF92CF92DF92EF92FF920F931F93CF93DF93EB018A016115710570
:2053200009F466C04115510509F462C0DAA4CBA4BCA4ADA46EA17FA188A599A52D2D3C2D84
:205340004B2D5A2D0E94417D882309F451C08FA9882309F043C0F801E6A0F7A000A511A5E5
:205360006D2D7C2D8B2D9A2DA80197010E944F7F1816A4F5C801B701A80197010E942180EE
:205380007B018C016AA97BA98CA99DA9905820E030E040E050EC0E9421802EA53FA548A913
:2053A00059A90E9421809B01AC01C801B7010E94687C0E948E807B018C016D2D7C2D8B2DA4
:2053C0009A2D9701A8010E94417D882324F4ED2CFC2C0B2D1A2DC701D80104C08D2D9C2DFA
:2053E000AB2DBA2D8EA39FA3A8A7B9A781E08EABDF91CF911F910F91FF90EF90DF90CF9036
:20540000BF90AF900895CF92DF92EF92FF920F93DF93CF9300D0CDB7DEB780917F098FB73F
:20542000F894F09080098FBF80917F0990E040968F1991098F709070049704F100917F09C0
:2054400003500F70CC24DD2440E050E06DE4E62E13C0802F002309F480E1082F01500E9D9E
:20546000C001112481559B4F9A838983B6010E948229A601C980DA800F1559F70F900F904D
:20548000CF91DF910F91FF90EF90DF90CF90089510927F091092800980E1EEE9F4E0DF01E2
:2054A0001D928A95E9F780E090E0A0E0B0E08093850990938609A0938709B0938809809361
:2054C000890990938A09A0938B09B0938C0980938D0990938E09A0938F09B09390098093C8
:2054E000910990939209A0939309B09394098093810990938209A0938309B093840908952E
:205500002F923F924F925F926F927F928F929F92AF92BF92CF92DF92EF92FF920F931F93F9
:20552000DF93CF93CDB7DEB766970FB6F894DEBF0FBECDBF9E8B8D8B6A017B01480159016F
:20554000DC01D8966D917D918D919C91DB970E94E17D698B7A8B8B8B9C8BA70196010E9420
:2055600021800E942E7D0E94B57D6D837E838F83988769897A898B899C89A50194010E943C
:2055800021800E942E7D0E94B57D69837A838B839C832D813E814F8158852837310541053E
:2055A000510540F448E750E060E070E04D835E836F83788769817A818B819C8168377105AD
:2055C0008105910540F488E790E0A0E0B0E089839A83AB83BC83AD89BE89AC5BBF4FAD9027
:2055E000BD90CD90DC901397A454B040BE8BAD8B6D817E818F8198850E94E17D6D877E876F
:205600008F87988BC601B5010E94E37D1B012C0120E030E040E050E00E94417D882321F409
:20562000E0E070E060E028C069897A898B899C899B01AC010E9421807B018C016D857E857A
:205640008F8598899B01AC010E9421809B01AC01C801B7010E94677C7B018C01C201B101BC
:20566000A20191010E94687C9B01AC01C801B7010E94487DE62F692F2E2F372F482F562FD2
:20568000B901CA010E942E7D0E94B07D3B014C0169817A818B819C810E94E17D69877A87E1
:2056A0008B879C8766277727CB016A197B098C099D090E94E37D5B016C0120E030E040E081
:2056C00050E00E94417D882321F4E0E070E060E028C069857A858B859C859B01AC010E9439
:2056E00021807B018C0169897A898B899C899B01AC010E9421809B01AC01C801B7010E94DA
:20570000677C7B018C01C601B501A60195010E94687C9B01AC01C801B7010E94487DE62F17
:20572000692F2E2F372F482F562FB901CA010E941E7EED89FE89A088B188C288D3888601C5
:205740007501E618F708080919090E94B07DA8019701261B370B480B590B57FF71C0C2010F
:20576000B10120E030E040E050E00E94417D882321F4E0E070E060E044C0C201B101A2018B
:2057800091010E94687C7B018C01C601B5010E94E17D9B01AC01C801B7010E9421807B01E2
:2057A0008C016D857E858F8598899B01AC010E9421809B01AC01C801B7010E94677C7B01DB
:2057C0008C0169857A858B859C859B01AC010E9421809B01AC01C801B7010E94687C7B01C6
:2057E0008C01C201B10120E030E040E850E40E9421809B01AC01C801B7010E94487DE62FB2
:20580000692F2E2F372F482F562FB901CA010E942E7D0E94B07DAC01CB01DA013C014D01B1
:2058200097FE03C06624772443016A147B048C049D0410F03501460120E030E040E050E09C
:205840009FB7F8946D897E89645B7F4FDB018C91AC54B040BE8BAD8B882321F5FD01648AC5
:20586000758A868A978A260D371D481D591D58962D933D934D935C935B972D813E814F811A
:205880005885DC962D933D934D935C93DF97A05CBF4F29813A814B815C812D933D934D935C
:2058A0005C9313979FBF66960FB6F894DEBF0FBECDBFCF91DF911F910F91FF90EF90DF9011
:2058C000CF90BF90AF909F908F907F906F905F904F903F902F9008954F925F927F928F9282
:2058E0009F92AF92BF92CF92DF92EF92FF920F931F93CF93DF9370908009C0E0D0E07DE49F
:20590000472E512C46C02097B1F18EA9882361F4849CF001859CF00D949CF00D1124E15538
:20592000FB4F86A9882339F1EAA0FBA00CA11DA16EA17FA188A599A5A80197010E94487D47
:205940005B016C01849CF001859CF00D949CF00D1124E155FB4F66A177A180A591A5A8014A
:2059600097010E94487D8B019C01CE01B601A5010E94802A1EAA739480E1781609F4772431
:20598000849CE001859CD00D949CD00D1124C155DB4F872C992487FC909480917F0990E066
:2059A0008816990609F0AFCF2097F1F0EAA0FBA00CA11DA16EA17FA188A599A5A801970130
:2059C0000E94487D5B016C016DEC7CEC8CE49DE3A80197010E94487D8B019C01CE01B6018F
:2059E000A5010E94802A1EAADF91CF911F910F91FF90EF90DF90CF90BF90AF909F908F9015
:205A00007F905F904F9008950E94032A0E9450290E946C2C08952F923F924F925F926F92E6
:205A20007F928F929F92AF92BF92CF92DF92EF92FF920F931F93DF93CF93CDB7DEB7C15833
:205A4000D0400FB6F894DEBF0FBECDBF5C014B013A012901EF96EFAEEF97C158DF4FF88278
:205A6000CF57D040C058DF4F0883C058D040CF57DF4F1883C158D040A496DFAECEAEA49761
:205A800080917F098F5F803109F480E0282F332727FD30953DAB2CAB04C00E94431F0E94AE
:205AA00022408091800990E04CA95DA984179507A1F3D5016D917D918D919C912091520480
:205AC0003091530440915404509155040E9421800E94F17FA9966FAFA997AA967FAFAA97AA
:205AE000AB968FAFAB97AC969FAFAC97F4016081718182819381209156043091570440913B
:205B00005804509159040E9421800E94F17FAD966FAFAD97AE967FAFAE97AF968FAFAF9771
:205B2000E0969FAFE097D3016D917D918D919C9120915A0430915B0440915C0450915D045D
:205B40000E9421800E94F17FE1966FAFE197E2967FAFE297E3968FAFE397E4969FAFE49750
:205B6000F201608171818281938120915E0430915F0440916004509161040E9421800E94B1
:205B8000F17FE5966FAFE597E6967FAFE697E7968FAFE797E8969FAFE8978091AA049091F5
:205BA000AB04A091AC04B091AD04E8962CAD3DAD4EAD5FADE897281739074A075B0709F46D
:205BC000DCC0E091040AF0E0EE0FFF1FEE0FFF1FEE53FC4F60817181828193812091BB02C0
:205BE0003091BC024091BD025091BE020E94417D88230CF045C0E8964CAD5DAD6EAD7FAD21
:205C0000E8974093AA045093AB046093AC047093AD04EFE2F6E084918F017E010894E11C37
:205C2000F11C0CC0898388EF9CE0B70141E050E00E94EB760F5F1F4FF8018491882391F763
:205C4000E3E5F6E084918F017E010894E11CF11C0CC0898388EF9CE0B70141E050E00E9466
:205C6000EB760F5F1F4FF8018491882391F78AE0898388EF9CE0B70141E050E00E94EB7631
:205C80008091AA049091AB04A091AC04B091AD04E8962CAD3DAD4EAD5FADE897281B390B54
:205CA0004A0B5B0BCA01B90157FF07C090958095709561957F4F8F4F9F4F0E94E37D7B013A
:205CC0008C0160915E0470915F04809160049091610420E030E04BED53E40E9421809B0127
:205CE000AC01C801B7010E944F7F18160CF045C0E8964CAD5DAD6EAD7FADE8974093AA040F
:205D00005093AB046093AC047093AD04EFE2F6E084918F017E010894E11CF11C0CC0898351
:205D200088EF9CE0B70141E050E00E94EB760F5F1F4FF8018491882391F7E5E3F6E0849194
:205D40008F017E010894E11CF11C0CC0898388EF9CE0B70141E050E00E94EB760F5F1F4FDB
:205D6000F8018491882391F78AE0898388EF9CE0B70141E050E00E94EB7680917F09282F7D
:205D800030E0A2963FAF2EAFA2978DE490E0289FF001299FF00D389FF00D1124E155FB4FD0
:205DA000E45BFF4F1082EC54F04080919E0490919F04A091A004B091A104AC96ECACFDAC9F
:205DC0000EAD1FADAC97E81AF90A0A0B1B0B2091A2043091A3044091A4045091A5043701BF
:205DE0004801621A730A840A950AE0966CAD7DAD8EAD9FADE097660E771E881E991E608235
:205E000071828282938297FE0BC088279927DC0186199709A809B90980839183A283B383A6
:205E200017012801E0968CAD9DADAEADBFADE097281A390A4A0A5B0A220E331E441E551E56
:205E40008DE490E0A296AEADBFADA297A89FF001A99FF00DB89FF00D1124E155FB4F2482FD
:205E600035824682578257FE0BC088279927DC0182199309A409B50984839583A683B7833A
:205E80002091A6043091A7044091A8045091A904A0962CAF3DAF4EAF5FAFA097E4966CAD5E
:205EA0007DAD8EAD9FADE497621B730B840B950B6C966CAF7DAF8EAF9FAF6C978DE490E0D4
:205EC000A296AEADBFADA297A89FF001A99FF00DB89FF00D1124E155FB4F6C962CAD3DAD3F
:205EE0004EAD5FAD6C97208731874287538757FF0DC0DA01C901B095A095909581959F4F2B
:205F0000AF4FBF4F80879187A287B3874091AA045091AB046091AC047091AD044AA75BA79E
:205F20006CA77DA7E8968CAD9DADAEADBFADE897841B950BA60BB70B8EA39FA3A8A7B9A70F
:205F4000E091040AF0E0EE0FFF1FEE0FFF1FEC51FD4F208131814281538168962CAF3DAF84
:205F60004EAF5FAF68974091E2025091E30264965FAF4EAF6497BC01CD0197FF07C090958F
:205F80008095709561957F4F8F4F9F4F0E94E37D68962CAD3DAD4EAD5FAD68970E9421804B
:205FA0000E94B07D6496AEADBFAD64979D01442737FD4095542F0E94F38024E630E040E072
:205FC00050E00E9453818DE490E0A2966EAD7FADA297689FF001699FF00D789FF00D11243C
:205FE000E155FB4FDF011C96248711963C93119712964C93129713965C9380819181A281C8
:20600000B3812E968CAF9DAFAEAFBFAF2E97A480B580C680D780E084F18402851385C901B9
:20602000DA018E159F05A007B10714F4D801C7018A159B05AC05BD0514F4D601C5019C0142
:20604000AD012E966CAD7DAD8EAD9FAD2E97261737074807590714F49B01AC018DE490E0E3
:20606000A296AEADBFADA297A89FB001A99F700DB89F700D112461557B4FFB01208B318B3F
:20608000428B538B263031054105510510F40C94C138E85BFF4F8091050A9091060AAA27DD
:2060A00097FDA095BA2F80839183A283B383DB0190961C92909797FE03C081E090968C93E7
:2060C00057FE12C08DE490E0A2962EAD3FADA297289FF001299FF00D389FF00D1124E155C4
:2060E000FB4F80A1826080A3E4964CAD5DAD6EAD7FADE497A0968CAD9DADAEADBFADA0973A
:20610000481759076A077B0794F48DE490E0A296AEADBFADA297A89FF001A99FF00DB89F58
:20612000F00D1124E155FB4F80A1846080A3E8962CAD3DAD4EAD5FADE8976AA57BA58CA55E
:206140009DA5261737074807590794F48DE490E0A296AEADBFADA297A89FF001A99FF00DB5
:20616000B89FF00D1124E155FB4F80A1886080A38DE490E0A2962EAD3FADA297289FF00119
:20618000299FF00D389FF00D1124E155FB4FA496AEADBFADA4978C9181A32081318142811E
:2061A000538162962CAF3DAF4EAF5FAF6297211531054105510541F484819581A681B78191
:2061C0000097A105B10511F0779876988DE490E0A2964EAD5FADA297489FF001499FF00D98
:2061E000589FF00D1124E155FB4FA084B184C284D384A114B104C104D10409F047988DE4B3
:2062000090E0A2966EAD7FADA297689FF001699FF00D789FF00D1124E155FB4F848595856D
:20622000A685B7850097A105B10529F1439843988091720490917304A0917404B0917504B2
:206240008EA79FA7A8ABB9ABEF966FADEF97C158DF4F7881CF57D040C058DF4F8881C05808
:20626000D040CF57DF4F9881C158D0402EA53FA548A959A91EC020918A0430918B04409190
:206280008C0450918D042EA73FA748AB59ABEF966FADEF97C158DF4F7881CF57D040C05895
:2062A000DF4F8881C058D040CF57DF4F9881C158D0400E94417D87FD16C0EF968FADEF97E8
:2062C000C158DF4F9881CF57D040C058DF4FA881C058D040CF57DF4FB881C158D0408EA7A6
:2062E0009FA7A8ABB9ABC401B3010E94E37D209152043091530440915404509155040E9402
:20630000487D962E872E782E692EAC01CB01DA018A839B83AC83BD83C201B1010E94E37D9D
:20632000209156043091570440915804509159040E94487DA5966FAFA597A6967FAFA69728
:20634000A7968FAFA797A8969FAFA897AC01CB01DA018E839F83A887B9876C966CAD7DAD7E
:206360008EAD9FAD6C970E94E37D20915A0430915B0440915C0450915D040E94487D562E04
:20638000472E382E292EAC01CB01DA018A879B87AC87BD876EA17FA188A599A50E94E37D31
:2063A00020915E0430915F0440916004509161040E94487D68962CAD3DAD4EAD5FAD6897FD
:2063C0000E9421807B018C0164964EAD5FAD6497BA01882777FD8095982F0E94E37D9B011D
:2063E000AC01C801B7010E94218020E030E048EC52E40E94487D9B01AC016E877F87888BF4
:20640000998B62966CAD7DAD8EAD9FAD629766307105810591052CF58DE490E0A296AEADE0
:20642000BFADA297A89FF001A99FF00DB89FF00D1124E155FB4F84819581A681B78106971A
:20644000A105B10574F4B6E0AB16B104C104D10444F4DA01C901BF7786A797A7A0ABB1ABAD
:2064600045C0292D382D472D562DB901CA010E94D8803B014C01A5962FADA597A6963FADE2
:20648000A697A7964FADA797A8965FADA897B901CA010E94D8805B016C01252D342D432D54
:2064A000522DB901CA010E94D8807B018C01C401B301A60195010E94687CA80197010E94B6
:2064C000687C0E948E802DE430E0A2964EAD5FADA297429FF001439FF00D529FF00D1124BB
:2064E000E155FB4F66A777A780AB91AB8DE490E0A2966EAD7FADA297689FF001699FF00DF4
:20650000789FF00D1124E155FB4F86A597A5A0A9B1A92A968CAF9DAFAEAFBFAF2A9760E095
:2065200070E080E89FE32A962CAD3DAD4EAD5FAD2A970E94487D9B01AC016EA57FA588A9BE
:2065400099A90E9421802B013C0180917F0990918009A82FB0E05096A91BB109AF70B07000
:20656000BBABAAABA230B1050CF451C05D01CC24B7FCC094DC2CC601B5010E94E37D20E0EB
:2065800030E040E051E40E94417D88230CF03FC060E074E284E799E4A30192010E94487D74
:2065A0000E94F17F7B018C0160913E0470913F048091400490914104E616F7060807190766
:2065C00030F56E197F09800B910B660F771F881F991FA60195010E943181CA01B9010E943E
:2065E000E17D0E94F17F9B01AC012E0D3F1D401F511FCA01B9010E94E17D9B01AC0160E06E
:2066000074E284E799E40E94487D2B013C018DE490E0A296EEADFFADA297E89F8001E99F43
:20662000100DF89F100D112401551B4F2A966CAD7DAD8EAD9FAD2A97A30192010E942180CF
:20664000D80192966D937D938D939C93959750966D917D918D919C9153970E94E17DA301E3
:2066600092010E9421800E942E7D0E94B57DF80160AF71AF82AF93AFE9961FAEE997EA963C
:206680001FAEEA9720E8222E9FE3392E88249924E2E0F0E0EC0FFD1FE80DF91DC301B201D7
:2066A00020813181428153810E942180E2E1F0E0EC0FFD1FE80DF91D608371838283938306
:2066C0005B016C01E894D7F8F401EE5BFB4FE080F18002811381C601B501A80197010E94D6
:2066E0004F7F1816ACF4C801B701A60195010E94487D6B017C01E9966FADE997EA967FAD29
:20670000EA97C101A70196010E94417D88234CF4E9968FADE997EA969FADEA97D1016C01E5
:206720007D0124E030E0820E931E30E18316910451F0D701C601E996CFAEE997EA969FAF1D
:20674000EA971D01A5CFC701B60120E030E040E85FE30E94417D88230CF04CC08E010E5E1F
:206760001F4F82E2A82EB12CAC0EBD1ED8016D917D918D919C91A70196010E942180F80154
:2067800061937193819391938F01EA15FB0571F78DE490E0A2962EAD3FADA297289F800171
:2067A000299F100D389F100D112401551B4FD80192966D917D918D919C919597A701960148
:2067C0000E942180F80162A373A384A395A360AD71AD82AD93AD0E94E17DA70196010E9488
:2067E00021800E94B57DD801D8966D937D938D939C93DB978DE490E0A296EEADFFADA29773
:20680000E89F8001E99F100DF89F100D112401551B4FD80150966D917D918D919C91539722
:206820000E94E17DF80126A537A540A951A90E94487D1B012C01F80180819181A281B381C2
:206840000097A105B10549F584819581A681B7810097A105B10509F580859185A285B38522
:206860000097A105B105C9F4C201B10120917A0430917B0440917C0450917D040E9421808E
:206880000E942E7D0C5B1F4F0E94B57DD8016D937D938D939C93139771C1C201B1012091C8
:2068A00076043091770440917804509179040E9421800E942E7D0E94B57D2DE430E0A296BA
:2068C000EEADFFADA297E29F6001E39FD00CF29FD00C11242FEA34E0C20ED31EB4E46B2E37
:2068E000712C6C0C7D1CD3016D937D938D939C93139780908E0490908F04A0909004B090B4
:2069000091040E94E17D7B018C01F60160817181828193810E94E37D9B01AC01C801B7012C
:206920000E9421807B018C01D60150966D917D918D919C9153970E94E17D9B01AC01C801FB
